{
  "address": "0xC7103de59730CF42500e304D17c324367df139c6",
  "abi": [
    {
      "inputs": [
        {
          "internalType": "string",
          "name": "_name",
          "type": "string"
        },
        {
          "internalType": "string",
          "name": "_symbol",
          "type": "string"
        },
        {
          "internalType": "uint256",
          "name": "_cap",
          "type": "uint256"
        }
      ],
      "stateMutability": "nonpayable",
      "type": "constructor"
    },
    {
      "anonymous": false,
      "inputs": [
        {
          "indexed": true,
          "internalType": "address",
          "name": "owner",
          "type": "address"
        },
        {
          "indexed": true,
          "internalType": "address",
          "name": "spender",
          "type": "address"
        },
        {
          "indexed": false,
          "internalType": "uint256",
          "name": "value",
          "type": "uint256"
        }
      ],
      "name": "Approval",
      "type": "event"
    },
    {
      "anonymous": false,
      "inputs": [
        {
          "indexed": false,
          "internalType": "address",
          "name": "account",
          "type": "address"
        },
        {
          "indexed": false,
          "internalType": "bytes32",
          "name": "role",
          "type": "bytes32"
        }
      ],
      "name": "GrantRole",
      "type": "event"
    },
    {
      "anonymous": false,
      "inputs": [
        {
          "indexed": false,
          "internalType": "address",
          "name": "account",
          "type": "address"
        },
        {
          "indexed": false,
          "internalType": "bytes32",
          "name": "role",
          "type": "bytes32"
        }
      ],
      "name": "RenounceRole",
      "type": "event"
    },
    {
      "anonymous": false,
      "inputs": [
        {
          "indexed": false,
          "internalType": "address",
          "name": "account",
          "type": "address"
        },
        {
          "indexed": false,
          "internalType": "bytes32",
          "name": "role",
          "type": "bytes32"
        }
      ],
      "name": "RevokeRole",
      "type": "event"
    },
    {
      "anonymous": false,
      "inputs": [
        {
          "indexed": true,
          "internalType": "address",
          "name": "from",
          "type": "address"
        },
        {
          "indexed": true,
          "internalType": "address",
          "name": "to",
          "type": "address"
        },
        {
          "indexed": false,
          "internalType": "uint256",
          "name": "value",
          "type": "uint256"
        }
      ],
      "name": "Transfer",
      "type": "event"
    },
    {
      "inputs": [],
      "name": "ADMIN_ROLE",
      "outputs": [
        {
          "internalType": "bytes32",
          "name": "",
          "type": "bytes32"
        }
      ],
      "stateMutability": "view",
      "type": "function"
    },
    {
      "inputs": [],
      "name": "BURNER_ROLE",
      "outputs": [
        {
          "internalType": "bytes32",
          "name": "",
          "type": "bytes32"
        }
      ],
      "stateMutability": "view",
      "type": "function"
    },
    {
      "inputs": [],
      "name": "MINTER_ROLE",
      "outputs": [
        {
          "internalType": "bytes32",
          "name": "",
          "type": "bytes32"
        }
      ],
      "stateMutability": "view",
      "type": "function"
    },
    {
      "inputs": [
        {
          "internalType": "address",
          "name": "owner",
          "type": "address"
        },
        {
          "internalType": "address",
          "name": "spender",
          "type": "address"
        }
      ],
      "name": "allowance",
      "outputs": [
        {
          "internalType": "uint256",
          "name": "",
          "type": "uint256"
        }
      ],
      "stateMutability": "view",
      "type": "function"
    },
    {
      "inputs": [
        {
          "internalType": "address",
          "name": "spender",
          "type": "address"
        },
        {
          "internalType": "uint256",
          "name": "amount",
          "type": "uint256"
        }
      ],
      "name": "approve",
      "outputs": [
        {
          "internalType": "bool",
          "name": "",
          "type": "bool"
        }
      ],
      "stateMutability": "nonpayable",
      "type": "function"
    },
    {
      "inputs": [
        {
          "internalType": "address",
          "name": "account",
          "type": "address"
        }
      ],
      "name": "balanceOf",
      "outputs": [
        {
          "internalType": "uint256",
          "name": "",
          "type": "uint256"
        }
      ],
      "stateMutability": "view",
      "type": "function"
    },
    {
      "inputs": [
        {
          "internalType": "address",
          "name": "_account",
          "type": "address"
        },
        {
          "internalType": "uint256",
          "name": "_amount",
          "type": "uint256"
        }
      ],
      "name": "burn",
      "outputs": [],
      "stateMutability": "nonpayable",
      "type": "function"
    },
    {
      "inputs": [],
      "name": "cap",
      "outputs": [
        {
          "internalType": "uint256",
          "name": "",
          "type": "uint256"
        }
      ],
      "stateMutability": "view",
      "type": "function"
    },
    {
      "inputs": [],
      "name": "getAdminRole",
      "outputs": [
        {
          "internalType": "bytes32",
          "name": "",
          "type": "bytes32"
        }
      ],
      "stateMutability": "pure",
      "type": "function"
    },
    {
      "inputs": [
        {
          "internalType": "address",
          "name": "_account",
          "type": "address"
        },
        {
          "internalType": "bytes32",
          "name": "_role",
          "type": "bytes32"
        }
      ],
      "name": "grantRole",
      "outputs": [],
      "stateMutability": "nonpayable",
      "type": "function"
    },
    {
      "inputs": [
        {
          "internalType": "address",
          "name": "_address",
          "type": "address"
        },
        {
          "internalType": "bytes32",
          "name": "_role",
          "type": "bytes32"
        }
      ],
      "name": "hasRole",
      "outputs": [
        {
          "internalType": "bool",
          "name": "",
          "type": "bool"
        }
      ],
      "stateMutability": "view",
      "type": "function"
    },
    {
      "inputs": [
        {
          "internalType": "address",
          "name": "_account",
          "type": "address"
        },
        {
          "internalType": "uint256",
          "name": "_amount",
          "type": "uint256"
        }
      ],
      "name": "mint",
      "outputs": [],
      "stateMutability": "nonpayable",
      "type": "function"
    },
    {
      "inputs": [],
      "name": "name",
      "outputs": [
        {
          "internalType": "string",
          "name": "",
          "type": "string"
        }
      ],
      "stateMutability": "view",
      "type": "function"
    },
    {
      "inputs": [
        {
          "internalType": "address",
          "name": "_account",
          "type": "address"
        },
        {
          "internalType": "bytes32",
          "name": "_role",
          "type": "bytes32"
        }
      ],
      "name": "renounceRole",
      "outputs": [],
      "stateMutability": "nonpayable",
      "type": "function"
    },
    {
      "inputs": [
        {
          "internalType": "address",
          "name": "_account",
          "type": "address"
        },
        {
          "internalType": "bytes32",
          "name": "_role",
          "type": "bytes32"
        }
      ],
      "name": "revokeRole",
      "outputs": [],
      "stateMutability": "nonpayable",
      "type": "function"
    },
    {
      "inputs": [],
      "name": "symbol",
      "outputs": [
        {
          "internalType": "string",
          "name": "",
          "type": "string"
        }
      ],
      "stateMutability": "view",
      "type": "function"
    },
    {
      "inputs": [],
      "name": "totalSupply",
      "outputs": [
        {
          "internalType": "uint256",
          "name": "",
          "type": "uint256"
        }
      ],
      "stateMutability": "view",
      "type": "function"
    },
    {
      "inputs": [
        {
          "internalType": "address",
          "name": "recipient",
          "type": "address"
        },
        {
          "internalType": "uint256",
          "name": "amount",
          "type": "uint256"
        }
      ],
      "name": "transfer",
      "outputs": [
        {
          "internalType": "bool",
          "name": "",
          "type": "bool"
        }
      ],
      "stateMutability": "nonpayable",
      "type": "function"
    },
    {
      "inputs": [
        {
          "internalType": "address",
          "name": "sender",
          "type": "address"
        },
        {
          "internalType": "address",
          "name": "recipient",
          "type": "address"
        },
        {
          "internalType": "uint256",
          "name": "amount",
          "type": "uint256"
        }
      ],
      "name": "transferFrom",
      "outputs": [
        {
          "internalType": "bool",
          "name": "",
          "type": "bool"
        }
      ],
      "stateMutability": "nonpayable",
      "type": "function"
    }
  ],
  "transactionHash": "0x35874ce5bb4f6b375104e2397699facc92f56ec208356a36fc7ffff588398ac1",
  "args": [
    "Super Ruin Token",
    "RUIN",
    "1000000000000000000000"
  ],
  "solcInputHash": "cae5d935e0fdf69adbd69f808ae2f5d8",
  "bytecode": "0x60a06040523480156200001157600080fd5b506040516200151b3803806200151b8339810160408190526200003491620002bb565b80838381600090805190602001906200004f9291906200016a565b508051620000659060019060208401906200016a565b50505060805262000081620000796200008a565b60006200008e565b505050620003e8565b3390565b6200009a82826200009e565b5050565b620000aa828262000140565b15620000d35760405162461bcd60e51b8152600401620000ca9062000344565b60405180910390fd5b60008181526005602090815260408083206001600160a01b038616845290915290819020805460ff19166001179055517fa7303245a59ff2ac54e2fe5528bb42911d3e6b94b05e43bc614aae7bccf514f3906200013490849084906200032b565b60405180910390a15050565b60009081526005602090815260408083206001600160a01b03949094168352929052205460ff1690565b828054620001789062000395565b90600052602060002090601f0160209004810192826200019c5760008555620001e7565b82601f10620001b757805160ff1916838001178555620001e7565b82800160010185558215620001e7579182015b82811115620001e7578251825591602001919060010190620001ca565b50620001f5929150620001f9565b5090565b5b80821115620001f55760008155600101620001fa565b600082601f83011262000221578081fd5b81516001600160401b03808211156200023e576200023e620003d2565b6040516020601f8401601f1916820181018381118382101715620002665762000266620003d2565b60405283825285840181018710156200027d578485fd5b8492505b83831015620002a0578583018101518284018201529182019162000281565b83831115620002b157848185840101525b5095945050505050565b600080600060608486031215620002d0578283fd5b83516001600160401b0380821115620002e7578485fd5b620002f58783880162000210565b945060208601519150808211156200030b578384fd5b506200031a8682870162000210565b925050604084015190509250925092565b6001600160a01b03929092168252602082015260400190565b60208082526031908201527f416363657373436f6e74726f6c3a3a5573657220616c7265616479206772616e60408201527074656420666f72207468697320726f6c6560781b606082015260800190565b600281046001821680620003aa57607f821691505b60208210811415620003cc57634e487b7160e01b600052602260045260246000fd5b50919050565b634e487b7160e01b600052604160045260246000fd5b60805161111762000404600039600061043801526111176000f3fe608060405234801561001057600080fd5b50600436106101215760003560e01c806375b238fc116100ad578063ac4ab3fb11610071578063ac4ab3fb14610220578063b3ecf23614610233578063d53913931461023b578063dd62ed3e14610243578063f3c3437d1461025657610121565b806375b238fc146101d757806395d89b41146101df5780639dc29fac146101e7578063a9059cbb146101fa578063ab2742dc1461020d57610121565b806323b872dd116100f457806323b872dd1461018e578063282c51f3146101a1578063355274ea146101a957806340c10f19146101b157806370a08231146101c457610121565b806306fdde0314610126578063095ea7b31461014457806318160ddd14610164578063208dd1ff14610179575b600080fd5b61012e610269565b60405161013b9190610c20565b60405180910390f35b610157610152366004610b9c565b6102fb565b60405161013b9190610c0c565b61016c610318565b60405161013b9190610c17565b61018c610187366004610b9c565b61031e565b005b61015761019c366004610b61565b610377565b61016c61040e565b61016c610436565b61018c6101bf366004610b9c565b61045a565b61016c6101d2366004610b0e565b6104a1565b61016c6104c0565b61012e6104c5565b61018c6101f5366004610b9c565b6104d4565b610157610208366004610b9c565b610539565b61018c61021b366004610b9c565b61054d565b61015761022e366004610b9c565b610598565b61016c6105c2565b61016c6105c7565b61016c610251366004610b2f565b6105d6565b61018c610264366004610b9c565b610601565b60606000805461027890611090565b80601f01602080910402602001604051908101604052809291908181526020018280546102a490611090565b80156102f15780601f106102c6576101008083540402835291602001916102f1565b820191906000526020600020905b8154815290600101906020018083116102d457829003601f168201915b5050505050905090565b600061030f610308610674565b8484610678565b50600192915050565b60025490565b6103266105c2565b600081815260056020908152604080832033845290915290205460ff166103685760405162461bcd60e51b815260040161035f90610d82565b60405180910390fd5b610372838361072c565b505050565b6001600160a01b038316600090815260036020526040812081908161039a610674565b6001600160a01b03166001600160a01b03168152602001908152602001600020549050828110156103dd5760405162461bcd60e51b815260040161035f90610efa565b6103e88585856107ba565b610403856103f4610674565b6103fe8685611079565b610678565b506001949350505050565b60405160200161041d90610bc5565b6040516020818303038152906040528051906020012081565b7f000000000000000000000000000000000000000000000000000000000000000090565b610462610436565b8161046b610318565b6104759190611061565b11156104935760405162461bcd60e51b815260040161035f9061101b565b61049d82826108dd565b5050565b6001600160a01b0381166000908152600460205260409020545b919050565b600081565b60606001805461027890611090565b6040516020016104e390610bc5565b60408051601f19818403018152918152815160209283012060008181526005845282812033825290935291205460ff1661052f5760405162461bcd60e51b815260040161035f90610d82565b6103728383610991565b600061030f610546610674565b84846107ba565b6105556105c2565b600081815260056020908152604080832033845290915290205460ff1661058e5760405162461bcd60e51b815260040161035f90610d82565b6103728383610a71565b60009081526005602090815260408083206001600160a01b03949094168352929052205460ff1690565b600090565b60405160200161041d90610bdc565b6001600160a01b03918216600090815260036020908152604080832093909416825291909152205490565b6106096105c2565b600081815260056020908152604080832033845290915290205460ff166106425760405162461bcd60e51b815260040161035f90610d82565b6001600160a01b038316331461066a5760405162461bcd60e51b815260040161035f90610cec565b610372338361072c565b3390565b6001600160a01b03831661069e5760405162461bcd60e51b815260040161035f90610d3f565b6001600160a01b0382166106c45760405162461bcd60e51b815260040161035f90610c73565b6001600160a01b0380841660008181526003602090815260408083209487168084529490915290819020849055517f8c5be1e5ebec7d5bd14f71427d1e84f3dd0314c0f7b2291e5b200ac8c7c3b9259061071f908590610c17565b60405180910390a3505050565b6107368282610598565b6107525760405162461bcd60e51b815260040161035f90610e66565b60008181526005602090815260408083206001600160a01b038616845290915290819020805460ff19169055517fd2a4c0c5ce589dd4d53ba3b322ec9e98736a0476cec2f1a1515835650bca3b9d906107ae9084908490610bf3565b60405180910390a15050565b6001600160a01b0382166107e05760405162461bcd60e51b815260040161035f90610dd1565b6001600160a01b0383166108065760405162461bcd60e51b815260040161035f90610f41565b6001600160a01b03831660009081526004602052604090205481111561083e5760405162461bcd60e51b815260040161035f90610fce565b6001600160a01b03831660009081526004602052604081208054839290610866908490611079565b90915550506001600160a01b03821660009081526004602052604081208054839290610893908490611061565b92505081905550816001600160a01b0316836001600160a01b03167fddf252ad1be2c89b69c2b068fc378daa952ba7f163c4a11628f55a4df523b3ef8360405161071f9190610c17565b6001600160a01b0382166109035760405162461bcd60e51b815260040161035f90610eb7565b80600260008282546109159190611061565b90915550506001600160a01b03821660009081526004602052604081208054839290610942908490611061565b90915550506040516001600160a01b038316906000907fddf252ad1be2c89b69c2b068fc378daa952ba7f163c4a11628f55a4df523b3ef90610985908590610c17565b60405180910390a35050565b6001600160a01b0382166109b75760405162461bcd60e51b815260040161035f90610cb5565b6001600160a01b0382166000908152600460205260409020548111156109ef5760405162461bcd60e51b815260040161035f90610f82565b8060026000828254610a019190611079565b90915550506001600160a01b03821660009081526004602052604081208054839290610a2e908490611079565b90915550506040516000906001600160a01b038416907fddf252ad1be2c89b69c2b068fc378daa952ba7f163c4a11628f55a4df523b3ef90610985908590610c17565b610a7b8282610598565b15610a985760405162461bcd60e51b815260040161035f90610e15565b60008181526005602090815260408083206001600160a01b038616845290915290819020805460ff19166001179055517fa7303245a59ff2ac54e2fe5528bb42911d3e6b94b05e43bc614aae7bccf514f3906107ae9084908490610bf3565b80356001600160a01b03811681146104bb57600080fd5b600060208284031215610b1f578081fd5b610b2882610af7565b9392505050565b60008060408385031215610b41578081fd5b610b4a83610af7565b9150610b5860208401610af7565b90509250929050565b600080600060608486031215610b75578081fd5b610b7e84610af7565b9250610b8c60208501610af7565b9150604084013590509250925092565b60008060408385031215610bae578182fd5b610bb783610af7565b946020939093013593505050565b6a4255524e45525f524f4c4560a81b8152600b0190565b6a4d494e5445525f524f4c4560a81b8152600b0190565b6001600160a01b03929092168252602082015260400190565b901515815260200190565b90815260200190565b6000602080835283518082850152825b81811015610c4c57858101830151858201604001528201610c30565b81811115610c5d5783604083870101525b50601f01601f1916929092016040019392505050565b60208082526022908201527f5275696e3a3a41646472657373206f66207370656e64657220697320696c6567604082015261185b60f21b606082015260800190565b60208082526017908201527f5275696e3a3a4164647265737320697320696c6567616c000000000000000000604082015260600190565b60208082526033908201527f416363657373436f6e74726f6c3a3a596f752063616e206f6e6c792072656e6f6040820152723ab731b2903937b632b9903337b91039b2b63360691b606082015260800190565b60208082526023908201527f5275696e3a3a41646472657373206f6620617070726f76657220697320696c6560408201526219d85b60ea1b606082015260800190565b6020808252602f908201527f416363657373436f6e74726f6c3a3a596f757220726f6c65206973206e6f742060408201526e61626c6520746f20646f207468697360881b606082015260800190565b60208082526024908201527f5275696e3a3a41646472657373206f6620726563697069656e7420697320696c6040820152631959d85b60e21b606082015260800190565b60208082526031908201527f416363657373436f6e74726f6c3a3a5573657220616c7265616479206772616e60408201527074656420666f72207468697320726f6c6560781b606082015260800190565b60208082526031908201527f416363657373436f6e74726f6c3a3a55736572206e6f74206772616e74656420604082015270199bdc881d1a1a5cc81c9bdb19481e595d607a1b606082015260800190565b60208082526023908201527f5275696e3a3a41646472657373206f6620726563656976657220697320696c6560408201526219d85b60ea1b606082015260800190565b60208082526027908201527f5275696e3a3a5472616e7366657220616d6f756e74206578636565647320616c6040820152666c6f77616e636560c81b606082015260800190565b60208082526021908201527f5275696e3a3a41646472657373206f662073656e64657220697320696c6567616040820152601b60fa1b606082015260800190565b6020808252602c908201527f5275696e3a3a4275726e696e6720616d6f756e7420657863656564732061636360408201526b6f756e742062616c616e636560a01b606082015260800190565b6020808252602d908201527f5275696e3a3a5472616e7366657220616d6f756e74206578636565647320616360408201526c636f756e742062616c616e636560981b606082015260800190565b60208082526026908201527f45524332304361707065643a3a596f75206d696e74206578636565647320796f60408201526507572206361760d41b606082015260800190565b60008219821115611074576110746110cb565b500190565b60008282101561108b5761108b6110cb565b500390565b6002810460018216806110a457607f821691505b602082108114156110c557634e487b7160e01b600052602260045260246000fd5b50919050565b634e487b7160e01b600052601160045260246000fdfea26469706673582212202f5e0cb5c970fdc6778d061deef90e0701fa67e2e7626aeb43bbc8035b38050164736f6c63430008000033",
  "devdoc": {
    "kind": "dev",
    "methods": {
      "allowance(address,address)": {
        "details": "Returns the remaining number of tokens that `spender` will be allowed to spend on behalf of `owner` through {transferFrom}. This is zero by default. This value changes when {approve} or {transferFrom} are called."
      },
      "approve(address,uint256)": {
        "details": "Sets `amount` as the allowance of `spender` over the caller's tokens. Returns a boolean value indicating whether the operation succeeded. IMPORTANT: Beware that changing an allowance with this method brings the risk that someone may use both the old and the new allowance by unfortunate transaction ordering. One possible solution to mitigate this race condition is to first reduce the spender's allowance to 0 and set the desired value afterwards: https://github.com/ethereum/EIPs/issues/20#issuecomment-263524729 Emits an {Approval} event."
      },
      "balanceOf(address)": {
        "details": "Returns the amount of tokens owned by `account`."
      },
      "totalSupply()": {
        "details": "Returns the amount of tokens in existence."
      },
      "transfer(address,uint256)": {
        "details": "Moves `amount` tokens from the caller's account to `recipient`. Returns a boolean value indicating whether the operation succeeded. Emits a {Transfer} event."
      },
      "transferFrom(address,address,uint256)": {
        "details": "Moves `amount` tokens from `sender` to `recipient` using the allowance mechanism. `amount` is then deducted from the caller's allowance. Returns a boolean value indicating whether the operation succeeded. Emits a {Transfer} event."
      }
    },
    "version": 1
  },
  "userdoc": {
    "kind": "user",
    "methods": {},
    "version": 1
  },
  "storageLayout": {
    "storage": [
      {
        "astId": 370,
        "contract": "contracts/tokens/Ruin.sol:Ruin",
        "label": "_name",
        "offset": 0,
        "slot": "0",
        "type": "t_string_storage"
      },
      {
        "astId": 372,
        "contract": "contracts/tokens/Ruin.sol:Ruin",
        "label": "_symbol",
        "offset": 0,
        "slot": "1",
        "type": "t_string_storage"
      },
      {
        "astId": 374,
        "contract": "contracts/tokens/Ruin.sol:Ruin",
        "label": "_totalSupply",
        "offset": 0,
        "slot": "2",
        "type": "t_uint256"
      },
      {
        "astId": 380,
        "contract": "contracts/tokens/Ruin.sol:Ruin",
        "label": "_allowances",
        "offset": 0,
        "slot": "3",
        "type": "t_mapping(t_address,t_mapping(t_address,t_uint256))"
      },
      {
        "astId": 384,
        "contract": "contracts/tokens/Ruin.sol:Ruin",
        "label": "_balances",
        "offset": 0,
        "slot": "4",
        "type": "t_mapping(t_address,t_uint256)"
      },
      {
        "astId": 10,
        "contract": "contracts/tokens/Ruin.sol:Ruin",
        "label": "roles",
        "offset": 0,
        "slot": "5",
        "type": "t_mapping(t_bytes32,t_mapping(t_address,t_bool))"
      }
    ],
    "types": {
      "t_address": {
        "encoding": "inplace",
        "label": "address",
        "numberOfBytes": "20"
      },
      "t_bool": {
        "encoding": "inplace",
        "label": "bool",
        "numberOfBytes": "1"
      },
      "t_bytes32": {
        "encoding": "inplace",
        "label": "bytes32",
        "numberOfBytes": "32"
      },
      "t_mapping(t_address,t_bool)": {
        "encoding": "mapping",
        "key": "t_address",
        "label": "mapping(address => bool)",
        "numberOfBytes": "32",
        "value": "t_bool"
      },
      "t_mapping(t_address,t_mapping(t_address,t_uint256))": {
        "encoding": "mapping",
        "key": "t_address",
        "label": "mapping(address => mapping(address => uint256))",
        "numberOfBytes": "32",
        "value": "t_mapping(t_address,t_uint256)"
      },
      "t_mapping(t_address,t_uint256)": {
        "encoding": "mapping",
        "key": "t_address",
        "label": "mapping(address => uint256)",
        "numberOfBytes": "32",
        "value": "t_uint256"
      },
      "t_mapping(t_bytes32,t_mapping(t_address,t_bool))": {
        "encoding": "mapping",
        "key": "t_bytes32",
        "label": "mapping(bytes32 => mapping(address => bool))",
        "numberOfBytes": "32",
        "value": "t_mapping(t_address,t_bool)"
      },
      "t_string_storage": {
        "encoding": "bytes",
        "label": "string",
        "numberOfBytes": "32"
      },
      "t_uint256": {
        "encoding": "inplace",
        "label": "uint256",
        "numberOfBytes": "32"
      }
    }
  }
}