{
  "address": "0x1e4C30f417612Dd5428364B3Ea49675F9ce8b2b3",
  "abi": [
    {
      "inputs": [
        {
          "internalType": "string",
          "name": "_name",
          "type": "string"
        },
        {
          "internalType": "string",
          "name": "_symbol",
          "type": "string"
        },
        {
          "internalType": "uint8",
          "name": "_decimals",
          "type": "uint8"
        },
        {
          "internalType": "uint256",
          "name": "_cap",
          "type": "uint256"
        }
      ],
      "stateMutability": "nonpayable",
      "type": "constructor"
    },
    {
      "anonymous": false,
      "inputs": [
        {
          "indexed": true,
          "internalType": "address",
          "name": "owner",
          "type": "address"
        },
        {
          "indexed": true,
          "internalType": "address",
          "name": "spender",
          "type": "address"
        },
        {
          "indexed": false,
          "internalType": "uint256",
          "name": "value",
          "type": "uint256"
        }
      ],
      "name": "Approval",
      "type": "event"
    },
    {
      "anonymous": false,
      "inputs": [
        {
          "indexed": false,
          "internalType": "address",
          "name": "account",
          "type": "address"
        },
        {
          "indexed": false,
          "internalType": "bytes32",
          "name": "role",
          "type": "bytes32"
        }
      ],
      "name": "GrantRole",
      "type": "event"
    },
    {
      "anonymous": false,
      "inputs": [
        {
          "indexed": false,
          "internalType": "address",
          "name": "account",
          "type": "address"
        }
      ],
      "name": "Paused",
      "type": "event"
    },
    {
      "anonymous": false,
      "inputs": [
        {
          "indexed": false,
          "internalType": "address",
          "name": "account",
          "type": "address"
        },
        {
          "indexed": false,
          "internalType": "bytes32",
          "name": "role",
          "type": "bytes32"
        }
      ],
      "name": "RenounceRole",
      "type": "event"
    },
    {
      "anonymous": false,
      "inputs": [
        {
          "indexed": false,
          "internalType": "address",
          "name": "account",
          "type": "address"
        },
        {
          "indexed": false,
          "internalType": "bytes32",
          "name": "role",
          "type": "bytes32"
        }
      ],
      "name": "RevokeRole",
      "type": "event"
    },
    {
      "anonymous": false,
      "inputs": [
        {
          "indexed": true,
          "internalType": "address",
          "name": "from",
          "type": "address"
        },
        {
          "indexed": true,
          "internalType": "address",
          "name": "to",
          "type": "address"
        },
        {
          "indexed": false,
          "internalType": "uint256",
          "name": "value",
          "type": "uint256"
        }
      ],
      "name": "Transfer",
      "type": "event"
    },
    {
      "anonymous": false,
      "inputs": [
        {
          "indexed": false,
          "internalType": "address",
          "name": "account",
          "type": "address"
        }
      ],
      "name": "UnPaused",
      "type": "event"
    },
    {
      "inputs": [],
      "name": "ADMIN_ROLE",
      "outputs": [
        {
          "internalType": "bytes32",
          "name": "",
          "type": "bytes32"
        }
      ],
      "stateMutability": "view",
      "type": "function"
    },
    {
      "inputs": [],
      "name": "BURNER_ROLE",
      "outputs": [
        {
          "internalType": "bytes32",
          "name": "",
          "type": "bytes32"
        }
      ],
      "stateMutability": "view",
      "type": "function"
    },
    {
      "inputs": [],
      "name": "MINTER_ROLE",
      "outputs": [
        {
          "internalType": "bytes32",
          "name": "",
          "type": "bytes32"
        }
      ],
      "stateMutability": "view",
      "type": "function"
    },
    {
      "inputs": [
        {
          "internalType": "address",
          "name": "owner",
          "type": "address"
        },
        {
          "internalType": "address",
          "name": "spender",
          "type": "address"
        }
      ],
      "name": "allowance",
      "outputs": [
        {
          "internalType": "uint256",
          "name": "",
          "type": "uint256"
        }
      ],
      "stateMutability": "view",
      "type": "function"
    },
    {
      "inputs": [
        {
          "internalType": "address",
          "name": "spender",
          "type": "address"
        },
        {
          "internalType": "uint256",
          "name": "amount",
          "type": "uint256"
        }
      ],
      "name": "approve",
      "outputs": [
        {
          "internalType": "bool",
          "name": "",
          "type": "bool"
        }
      ],
      "stateMutability": "nonpayable",
      "type": "function"
    },
    {
      "inputs": [
        {
          "internalType": "address",
          "name": "account",
          "type": "address"
        }
      ],
      "name": "balanceOf",
      "outputs": [
        {
          "internalType": "uint256",
          "name": "",
          "type": "uint256"
        }
      ],
      "stateMutability": "view",
      "type": "function"
    },
    {
      "inputs": [
        {
          "internalType": "address",
          "name": "_account",
          "type": "address"
        },
        {
          "internalType": "uint256",
          "name": "_amount",
          "type": "uint256"
        }
      ],
      "name": "burn",
      "outputs": [],
      "stateMutability": "nonpayable",
      "type": "function"
    },
    {
      "inputs": [],
      "name": "cap",
      "outputs": [
        {
          "internalType": "uint256",
          "name": "",
          "type": "uint256"
        }
      ],
      "stateMutability": "view",
      "type": "function"
    },
    {
      "inputs": [],
      "name": "decimals",
      "outputs": [
        {
          "internalType": "uint8",
          "name": "",
          "type": "uint8"
        }
      ],
      "stateMutability": "view",
      "type": "function"
    },
    {
      "inputs": [],
      "name": "getAdminRole",
      "outputs": [
        {
          "internalType": "bytes32",
          "name": "",
          "type": "bytes32"
        }
      ],
      "stateMutability": "pure",
      "type": "function"
    },
    {
      "inputs": [
        {
          "internalType": "address",
          "name": "_account",
          "type": "address"
        },
        {
          "internalType": "bytes32",
          "name": "_role",
          "type": "bytes32"
        }
      ],
      "name": "grantRole",
      "outputs": [],
      "stateMutability": "nonpayable",
      "type": "function"
    },
    {
      "inputs": [
        {
          "internalType": "address",
          "name": "_address",
          "type": "address"
        },
        {
          "internalType": "bytes32",
          "name": "_role",
          "type": "bytes32"
        }
      ],
      "name": "hasRole",
      "outputs": [
        {
          "internalType": "bool",
          "name": "",
          "type": "bool"
        }
      ],
      "stateMutability": "view",
      "type": "function"
    },
    {
      "inputs": [
        {
          "internalType": "address",
          "name": "_account",
          "type": "address"
        }
      ],
      "name": "isBurner",
      "outputs": [
        {
          "internalType": "bool",
          "name": "",
          "type": "bool"
        }
      ],
      "stateMutability": "view",
      "type": "function"
    },
    {
      "inputs": [
        {
          "internalType": "address",
          "name": "_account",
          "type": "address"
        }
      ],
      "name": "isMinter",
      "outputs": [
        {
          "internalType": "bool",
          "name": "",
          "type": "bool"
        }
      ],
      "stateMutability": "view",
      "type": "function"
    },
    {
      "inputs": [
        {
          "internalType": "address",
          "name": "_account",
          "type": "address"
        },
        {
          "internalType": "uint256",
          "name": "_amount",
          "type": "uint256"
        }
      ],
      "name": "mint",
      "outputs": [],
      "stateMutability": "nonpayable",
      "type": "function"
    },
    {
      "inputs": [],
      "name": "name",
      "outputs": [
        {
          "internalType": "string",
          "name": "",
          "type": "string"
        }
      ],
      "stateMutability": "view",
      "type": "function"
    },
    {
      "inputs": [],
      "name": "pause",
      "outputs": [],
      "stateMutability": "nonpayable",
      "type": "function"
    },
    {
      "inputs": [],
      "name": "paused",
      "outputs": [
        {
          "internalType": "bool",
          "name": "",
          "type": "bool"
        }
      ],
      "stateMutability": "view",
      "type": "function"
    },
    {
      "inputs": [
        {
          "internalType": "address",
          "name": "_account",
          "type": "address"
        },
        {
          "internalType": "bytes32",
          "name": "_role",
          "type": "bytes32"
        }
      ],
      "name": "renounceRole",
      "outputs": [],
      "stateMutability": "nonpayable",
      "type": "function"
    },
    {
      "inputs": [
        {
          "internalType": "address",
          "name": "_account",
          "type": "address"
        },
        {
          "internalType": "bytes32",
          "name": "_role",
          "type": "bytes32"
        }
      ],
      "name": "revokeRole",
      "outputs": [],
      "stateMutability": "nonpayable",
      "type": "function"
    },
    {
      "inputs": [],
      "name": "symbol",
      "outputs": [
        {
          "internalType": "string",
          "name": "",
          "type": "string"
        }
      ],
      "stateMutability": "view",
      "type": "function"
    },
    {
      "inputs": [],
      "name": "totalSupply",
      "outputs": [
        {
          "internalType": "uint256",
          "name": "",
          "type": "uint256"
        }
      ],
      "stateMutability": "view",
      "type": "function"
    },
    {
      "inputs": [
        {
          "internalType": "address",
          "name": "recipient",
          "type": "address"
        },
        {
          "internalType": "uint256",
          "name": "amount",
          "type": "uint256"
        }
      ],
      "name": "transfer",
      "outputs": [
        {
          "internalType": "bool",
          "name": "",
          "type": "bool"
        }
      ],
      "stateMutability": "nonpayable",
      "type": "function"
    },
    {
      "inputs": [
        {
          "internalType": "address",
          "name": "sender",
          "type": "address"
        },
        {
          "internalType": "address",
          "name": "recipient",
          "type": "address"
        },
        {
          "internalType": "uint256",
          "name": "amount",
          "type": "uint256"
        }
      ],
      "name": "transferFrom",
      "outputs": [
        {
          "internalType": "bool",
          "name": "",
          "type": "bool"
        }
      ],
      "stateMutability": "nonpayable",
      "type": "function"
    },
    {
      "inputs": [],
      "name": "unpause",
      "outputs": [],
      "stateMutability": "nonpayable",
      "type": "function"
    }
  ],
  "transactionHash": "0xd769e8d196f8dba9952bf0b0398008ee54fa58b3b73ef394e7d9a3b17213189f",
  "args": [
    "Super Ruin Token",
    "RUIN",
    18,
    "1000000000"
  ],
  "solcInputHash": "1f9d9b551301849bf18a73bc997fa0d5",
  "bytecode": "0x60a06040526003805460ff191660121790553480156200001e57600080fd5b5060405162001a7338038062001a738339810160408190526200004191620002e1565b8084848482600190805190602001906200005d92919062000190565b5081516200007390600290602085019062000190565b506003805460ff90921660ff199283161790556007805490911690555050608052620000aa620000a2620000b4565b6000620000b8565b5050505062000425565b3390565b620000c48282620000c8565b5050565b620000d4828262000168565b15620000fd5760405162461bcd60e51b8152600401620000f49062000381565b60405180910390fd5b6000818152602081815260408083206001600160a01b038616845290915290819020805460ff19166001179055517fa7303245a59ff2ac54e2fe5528bb42911d3e6b94b05e43bc614aae7bccf514f3906200015c908490849062000368565b60405180910390a15050565b6000908152602081815260408083206001600160a01b03949094168352929052205460ff1690565b8280546200019e90620003d2565b90600052602060002090601f016020900481019282620001c257600085556200020d565b82601f10620001dd57805160ff19168380011785556200020d565b828001600101855582156200020d579182015b828111156200020d578251825591602001919060010190620001f0565b506200021b9291506200021f565b5090565b5b808211156200021b576000815560010162000220565b600082601f83011262000247578081fd5b81516001600160401b03808211156200026457620002646200040f565b6040516020601f8401601f19168201810183811183821017156200028c576200028c6200040f565b6040528382528584018101871015620002a3578485fd5b8492505b83831015620002c65785830181015182840182015291820191620002a7565b83831115620002d757848185840101525b5095945050505050565b60008060008060808587031215620002f7578384fd5b84516001600160401b03808211156200030e578586fd5b6200031c8883890162000236565b9550602087015191508082111562000332578485fd5b50620003418782880162000236565b935050604085015160ff8116811462000358578283fd5b6060959095015193969295505050565b6001600160a01b03929092168252602082015260400190565b60208082526031908201527f416363657373436f6e74726f6c3a3a5573657220616c7265616479206772616e60408201527074656420666f72207468697320726f6c6560781b606082015260800190565b600281046001821680620003e757607f821691505b602082108114156200040957634e487b7160e01b600052602260045260246000fd5b50919050565b634e487b7160e01b600052604160045260246000fd5b60805161163262000441600039600061051401526116326000f3fe608060405234801561001057600080fd5b50600436106101a35760003560e01c806370a08231116100ee578063aa271e1a11610097578063b3ecf23611610071578063b3ecf23614610308578063d539139314610310578063dd62ed3e14610318578063f3c3437d1461032b576101a3565b8063aa271e1a146102cf578063ab2742dc146102e2578063ac4ab3fb146102f5576101a3565b806395d89b41116100c857806395d89b41146102a15780639dc29fac146102a9578063a9059cbb146102bc576101a3565b806370a082311461027e57806375b238fc146102915780638456cb5914610299576101a3565b8063313ce5671161015057806340c10f191161012a57806340c10f19146102505780634334614a146102635780635c975abb14610276576101a3565b8063313ce5671461022b578063355274ea146102405780633f4ba83a14610248576101a3565b8063208dd1ff11610181578063208dd1ff146101fb57806323b872dd14610210578063282c51f314610223576101a3565b806306fdde03146101a8578063095ea7b3146101c657806318160ddd146101e6575b600080fd5b6101b061033e565b6040516101bd9190610f5f565b60405180910390f35b6101d96101d4366004610ea3565b6103d0565b6040516101bd9190610f4b565b6101ee6103ed565b6040516101bd9190610f56565b61020e610209366004610ea3565b6103f3565b005b6101d961021e366004610e68565b61044a565b6101ee6104e1565b610233610509565b6040516101bd919061156e565b6101ee610512565b61020e610536565b61020e61025e366004610ea3565b6105b3565b6101d9610271366004610e15565b610617565b6101d961064f565b6101ee61028c366004610e15565b610658565b6101ee610673565b61020e610678565b6101b06106f3565b61020e6102b7366004610ea3565b610702565b6101d96102ca366004610ea3565b610766565b6101d96102dd366004610e15565b61077a565b61020e6102f0366004610ea3565b61078f565b6101d9610303366004610ea3565b6107d8565b6101ee610800565b6101ee610805565b6101ee610326366004610e36565b610814565b61020e610339366004610ea3565b61083f565b60606001805461034d906115ab565b80601f0160208091040260200160405190810160405280929190818152602001828054610379906115ab565b80156103c65780601f1061039b576101008083540402835291602001916103c6565b820191906000526020600020905b8154815290600101906020018083116103a957829003601f168201915b5050505050905090565b60006103e46103dd610875565b8484610879565b50600192915050565b60045490565b6103fb610800565b60008181526020818152604080832033845290915290205460ff1661043b5760405162461bcd60e51b8152600401610432906110b0565b60405180910390fd5b610445838361092d565b505050565b6001600160a01b038316600090815260056020526040812081908161046d610875565b6001600160a01b03166001600160a01b03168152602001908152602001600020549050828110156104b05760405162461bcd60e51b815260040161043290611340565b6104bb8585856109b9565b6104d6856104c7610875565b6104d18685611594565b610879565b506001949350505050565b6040516020016104f090610ecc565b6040516020818303038152906040528051906020012081565b60035460ff1690565b7f000000000000000000000000000000000000000000000000000000000000000090565b61053e61064f565b61055a5760405162461bcd60e51b8152600401610432906112e3565b3360009081527fad3228b676f7d3cd4284a5443f17f1962b36e491b30a40b2405849e597ba5fb5602052604081205460ff166105a85760405162461bcd60e51b8152600401610432906110b0565b6105b0610ae7565b50565b6040516020016105c290610ef5565b60408051601f198184030181529181528151602092830120600081815280845282812033825290935291205460ff1661060d5760405162461bcd60e51b8152600401610432906110b0565b6104458383610b2b565b60006106478260405160200161062c90610ecc565b604051602081830303815290604052805190602001206107d8565b90505b919050565b60075460ff1690565b6001600160a01b031660009081526006602052604090205490565b600081565b61068061064f565b1561069d5760405162461bcd60e51b815260040161043290610ff6565b3360009081527fad3228b676f7d3cd4284a5443f17f1962b36e491b30a40b2405849e597ba5fb5602052604081205460ff166106eb5760405162461bcd60e51b8152600401610432906110b0565b6105b0610b6e565b60606002805461034d906115ab565b60405160200161071190610ecc565b60408051601f198184030181529181528151602092830120600081815280845282812033825290935291205460ff1661075c5760405162461bcd60e51b8152600401610432906110b0565b6104458383610bab565b60006103e4610773610875565b84846109b9565b60006106478260405160200161062c90610ef5565b610797610800565b60008181526020818152604080832033845290915290205460ff166107ce5760405162461bcd60e51b8152600401610432906110b0565b6104458383610c97565b6000908152602081815260408083206001600160a01b03949094168352929052205460ff1690565b600090565b6040516020016104f090610ef5565b6001600160a01b03918216600090815260056020908152604080832093909416825291909152205490565b6001600160a01b03821633146108675760405162461bcd60e51b815260040161043290611053565b610871338261092d565b5050565b3390565b6001600160a01b03831661089f5760405162461bcd60e51b815260040161043290610fb2565b6001600160a01b0382166108c55760405162461bcd60e51b815260040161043290611144565b6001600160a01b0380841660008181526005602090815260408083209487168084529490915290819020849055517f8c5be1e5ebec7d5bd14f71427d1e84f3dd0314c0f7b2291e5b200ac8c7c3b92590610920908590610f56565b60405180910390a3505050565b61093782826107d8565b6109535760405162461bcd60e51b815260040161043290611242565b6000818152602081815260408083206001600160a01b038616845290915290819020805460ff19169055517fd2a4c0c5ce589dd4d53ba3b322ec9e98736a0476cec2f1a1515835650bca3b9d906109ad9084908490610f32565b60405180910390a15050565b6109c4838383610d1b565b6001600160a01b0382166109ea5760405162461bcd60e51b8152600401610432906111a1565b6001600160a01b038316610a105760405162461bcd60e51b81526004016104329061139d565b6001600160a01b038316600090815260066020526040902054811115610a485760405162461bcd60e51b815260040161043290611457565b6001600160a01b03831660009081526006602052604081208054839290610a70908490611594565b90915550506001600160a01b03821660009081526006602052604081208054839290610a9d90849061157c565b92505081905550816001600160a01b0316836001600160a01b03167fddf252ad1be2c89b69c2b068fc378daa952ba7f163c4a11628f55a4df523b3ef836040516109209190610f56565b6007805460ff191690556040517fff2b959f2bcdb44c7ecb4b16dae055431019d7350607125cfc2b74a06632c90e90610b21903390610f1e565b60405180910390a1565b610b33610512565b81610b3c6103ed565b610b46919061157c565b1115610b645760405162461bcd60e51b8152600401610432906114b4565b6108718282610d26565b6007805460ff191660011790556040517f62e78cea01bee320cd4e420270b5ea74000d11b0c9f74754ebdbfc544b05a25890610b21903390610f1e565b6001600160a01b038216610bd15760405162461bcd60e51b81526004016104329061110d565b6001600160a01b038216600090815260066020526040902054811115610c095760405162461bcd60e51b8152600401610432906113fa565b8060046000828254610c1b9190611594565b90915550506001600160a01b03821660009081526006602052604081208054839290610c48908490611594565b90915550506040516000906001600160a01b038416907fddf252ad1be2c89b69c2b068fc378daa952ba7f163c4a11628f55a4df523b3ef90610c8b908590610f56565b60405180910390a35050565b610ca182826107d8565b15610cbe5760405162461bcd60e51b8152600401610432906111e5565b6000818152602081815260408083206001600160a01b038616845290915290819020805460ff19166001179055517fa7303245a59ff2ac54e2fe5528bb42911d3e6b94b05e43bc614aae7bccf514f3906109ad9084908490610f32565b610445838383610dce565b6001600160a01b038216610d4c5760405162461bcd60e51b81526004016104329061129f565b8060046000828254610d5e919061157c565b90915550506001600160a01b03821660009081526006602052604081208054839290610d8b90849061157c565b90915550506040516001600160a01b038316906000907fddf252ad1be2c89b69c2b068fc378daa952ba7f163c4a11628f55a4df523b3ef90610c8b908590610f56565b610dd9838383610445565b610de161064f565b156104455760405162461bcd60e51b815260040161043290611511565b80356001600160a01b038116811461064a57600080fd5b600060208284031215610e26578081fd5b610e2f82610dfe565b9392505050565b60008060408385031215610e48578081fd5b610e5183610dfe565b9150610e5f60208401610dfe565b90509250929050565b600080600060608486031215610e7c578081fd5b610e8584610dfe565b9250610e9360208501610dfe565b9150604084013590509250925092565b60008060408385031215610eb5578182fd5b610ebe83610dfe565b946020939093013593505050565b7f4255524e45525f524f4c450000000000000000000000000000000000000000008152600b0190565b7f4d494e5445525f524f4c450000000000000000000000000000000000000000008152600b0190565b6001600160a01b0391909116815260200190565b6001600160a01b03929092168252602082015260400190565b901515815260200190565b90815260200190565b6000602080835283518082850152825b81811015610f8b57858101830151858201604001528201610f6f565b81811115610f9c5783604083870101525b50601f01601f1916929092016040019392505050565b60208082526024908201527f5275696e3a3a41646472657373206f6620617070726f76657220697320696c6c6040820152631959d85b60e21b606082015260800190565b60208082526025908201527f5061757361626c653a3a436f6e747261637420697320616c726561647920706160408201527f7573656421000000000000000000000000000000000000000000000000000000606082015260800190565b60208082526033908201527f416363657373436f6e74726f6c3a3a596f752063616e206f6e6c792072656e6f60408201527f756e636520726f6c657320666f722073656c6600000000000000000000000000606082015260800190565b6020808252602f908201527f416363657373436f6e74726f6c3a3a596f757220726f6c65206973206e6f742060408201527f61626c6520746f20646f20746869730000000000000000000000000000000000606082015260800190565b60208082526018908201527f5275696e3a3a4164647265737320697320696c6c6567616c0000000000000000604082015260600190565b60208082526023908201527f5275696e3a3a41646472657373206f66207370656e64657220697320696c6c6560408201527f67616c0000000000000000000000000000000000000000000000000000000000606082015260800190565b60208082526024908201527f5275696e3a3a41646472657373206f6620726563697069656e7420697320696c6040820152631959d85b60e21b606082015260800190565b60208082526031908201527f416363657373436f6e74726f6c3a3a5573657220616c7265616479206772616e60408201527f74656420666f72207468697320726f6c65000000000000000000000000000000606082015260800190565b60208082526031908201527f416363657373436f6e74726f6c3a3a55736572206e6f74206772616e7465642060408201527f666f72207468697320726f6c6520796574000000000000000000000000000000606082015260800190565b60208082526024908201527f5275696e3a3a41646472657373206f6620726563656976657220697320696c6c6040820152631959d85b60e21b606082015260800190565b60208082526021908201527f5061757361626c653a3a436f6e7472616374206973206e6f742070617573656460408201527f2100000000000000000000000000000000000000000000000000000000000000606082015260800190565b60208082526027908201527f5275696e3a3a5472616e7366657220616d6f756e74206578636565647320616c60408201527f6c6f77616e636500000000000000000000000000000000000000000000000000606082015260800190565b60208082526021908201527f5275696e3a3a41646472657373206f662073656e64657220697320696c65676160408201527f6c00000000000000000000000000000000000000000000000000000000000000606082015260800190565b6020808252602c908201527f5275696e3a3a4275726e696e6720616d6f756e7420657863656564732061636360408201527f6f756e742062616c616e63650000000000000000000000000000000000000000606082015260800190565b6020808252602d908201527f5275696e3a3a5472616e7366657220616d6f756e74206578636565647320616360408201527f636f756e742062616c616e636500000000000000000000000000000000000000606082015260800190565b60208082526026908201527f45524332304361707065643a3a596f75206d696e74206578636565647320796f60408201527f7572206361700000000000000000000000000000000000000000000000000000606082015260800190565b6020808252602a908201527f45524332305061757361626c653a20746f6b656e207472616e7366657220776860408201527f696c652070617573656400000000000000000000000000000000000000000000606082015260800190565b60ff91909116815260200190565b6000821982111561158f5761158f6115e6565b500190565b6000828210156115a6576115a66115e6565b500390565b6002810460018216806115bf57607f821691505b602082108114156115e057634e487b7160e01b600052602260045260246000fd5b50919050565b634e487b7160e01b600052601160045260246000fdfea26469706673582212200f82be82d89aafc8316f8a0d1e296ae3af6be62c1d45b6c07c9fea0d8ea5486464736f6c63430008000033",
  "devdoc": {
    "kind": "dev",
    "methods": {
      "allowance(address,address)": {
        "details": "Returns the remaining number of tokens that `spender` will be allowed to spend on behalf of `owner` through {transferFrom}. This is zero by default. This value changes when {approve} or {transferFrom} are called."
      },
      "approve(address,uint256)": {
        "details": "Sets `amount` as the allowance of `spender` over the caller's tokens. Returns a boolean value indicating whether the operation succeeded. IMPORTANT: Beware that changing an allowance with this method brings the risk that someone may use both the old and the new allowance by unfortunate transaction ordering. One possible solution to mitigate this race condition is to first reduce the spender's allowance to 0 and set the desired value afterwards: https://github.com/ethereum/EIPs/issues/20#issuecomment-263524729 Emits an {Approval} event."
      },
      "balanceOf(address)": {
        "details": "Returns the amount of tokens owned by `account`."
      },
      "totalSupply()": {
        "details": "Returns the amount of tokens in existence."
      },
      "transfer(address,uint256)": {
        "details": "Moves `amount` tokens from the caller's account to `recipient`. Returns a boolean value indicating whether the operation succeeded. Emits a {Transfer} event."
      },
      "transferFrom(address,address,uint256)": {
        "details": "Moves `amount` tokens from `sender` to `recipient` using the allowance mechanism. `amount` is then deducted from the caller's allowance. Returns a boolean value indicating whether the operation succeeded. Emits a {Transfer} event."
      }
    },
    "version": 1
  },
  "userdoc": {
    "kind": "user",
    "methods": {},
    "version": 1
  },
  "storageLayout": {
    "storage": [
      {
        "astId": 10,
        "contract": "contracts/tokens/Ruin.sol:Ruin",
        "label": "roles",
        "offset": 0,
        "slot": "0",
        "type": "t_mapping(t_bytes32,t_mapping(t_address,t_bool))"
      },
      {
        "astId": 373,
        "contract": "contracts/tokens/Ruin.sol:Ruin",
        "label": "_name",
        "offset": 0,
        "slot": "1",
        "type": "t_string_storage"
      },
      {
        "astId": 375,
        "contract": "contracts/tokens/Ruin.sol:Ruin",
        "label": "_symbol",
        "offset": 0,
        "slot": "2",
        "type": "t_string_storage"
      },
      {
        "astId": 378,
        "contract": "contracts/tokens/Ruin.sol:Ruin",
        "label": "_decimals",
        "offset": 0,
        "slot": "3",
        "type": "t_uint8"
      },
      {
        "astId": 380,
        "contract": "contracts/tokens/Ruin.sol:Ruin",
        "label": "_totalSupply",
        "offset": 0,
        "slot": "4",
        "type": "t_uint256"
      },
      {
        "astId": 386,
        "contract": "contracts/tokens/Ruin.sol:Ruin",
        "label": "_allowances",
        "offset": 0,
        "slot": "5",
        "type": "t_mapping(t_address,t_mapping(t_address,t_uint256))"
      },
      {
        "astId": 390,
        "contract": "contracts/tokens/Ruin.sol:Ruin",
        "label": "_balances",
        "offset": 0,
        "slot": "6",
        "type": "t_mapping(t_address,t_uint256)"
      },
      {
        "astId": 956,
        "contract": "contracts/tokens/Ruin.sol:Ruin",
        "label": "_paused",
        "offset": 0,
        "slot": "7",
        "type": "t_bool"
      }
    ],
    "types": {
      "t_address": {
        "encoding": "inplace",
        "label": "address",
        "numberOfBytes": "20"
      },
      "t_bool": {
        "encoding": "inplace",
        "label": "bool",
        "numberOfBytes": "1"
      },
      "t_bytes32": {
        "encoding": "inplace",
        "label": "bytes32",
        "numberOfBytes": "32"
      },
      "t_mapping(t_address,t_bool)": {
        "encoding": "mapping",
        "key": "t_address",
        "label": "mapping(address => bool)",
        "numberOfBytes": "32",
        "value": "t_bool"
      },
      "t_mapping(t_address,t_mapping(t_address,t_uint256))": {
        "encoding": "mapping",
        "key": "t_address",
        "label": "mapping(address => mapping(address => uint256))",
        "numberOfBytes": "32",
        "value": "t_mapping(t_address,t_uint256)"
      },
      "t_mapping(t_address,t_uint256)": {
        "encoding": "mapping",
        "key": "t_address",
        "label": "mapping(address => uint256)",
        "numberOfBytes": "32",
        "value": "t_uint256"
      },
      "t_mapping(t_bytes32,t_mapping(t_address,t_bool))": {
        "encoding": "mapping",
        "key": "t_bytes32",
        "label": "mapping(bytes32 => mapping(address => bool))",
        "numberOfBytes": "32",
        "value": "t_mapping(t_address,t_bool)"
      },
      "t_string_storage": {
        "encoding": "bytes",
        "label": "string",
        "numberOfBytes": "32"
      },
      "t_uint256": {
        "encoding": "inplace",
        "label": "uint256",
        "numberOfBytes": "32"
      },
      "t_uint8": {
        "encoding": "inplace",
        "label": "uint8",
        "numberOfBytes": "1"
      }
    }
  }
}