{
  "address": "0xf5059a5D33d5853360D16C683c16e67980206f36",
  "abi": [
    {
      "inputs": [
        {
          "internalType": "string",
          "name": "_name",
          "type": "string"
        },
        {
          "internalType": "string",
          "name": "_symbol",
          "type": "string"
        },
        {
          "internalType": "uint8",
          "name": "_decimals",
          "type": "uint8"
        },
        {
          "internalType": "uint256",
          "name": "_cap",
          "type": "uint256"
        }
      ],
      "stateMutability": "nonpayable",
      "type": "constructor"
    },
    {
      "anonymous": false,
      "inputs": [
        {
          "indexed": true,
          "internalType": "address",
          "name": "owner",
          "type": "address"
        },
        {
          "indexed": true,
          "internalType": "address",
          "name": "spender",
          "type": "address"
        },
        {
          "indexed": false,
          "internalType": "uint256",
          "name": "value",
          "type": "uint256"
        }
      ],
      "name": "Approval",
      "type": "event"
    },
    {
      "anonymous": false,
      "inputs": [
        {
          "indexed": false,
          "internalType": "address",
          "name": "account",
          "type": "address"
        },
        {
          "indexed": false,
          "internalType": "bytes32",
          "name": "role",
          "type": "bytes32"
        }
      ],
      "name": "GrantRole",
      "type": "event"
    },
    {
      "anonymous": false,
      "inputs": [
        {
          "indexed": false,
          "internalType": "address",
          "name": "account",
          "type": "address"
        },
        {
          "indexed": false,
          "internalType": "bytes32",
          "name": "role",
          "type": "bytes32"
        }
      ],
      "name": "RenounceRole",
      "type": "event"
    },
    {
      "anonymous": false,
      "inputs": [
        {
          "indexed": false,
          "internalType": "address",
          "name": "account",
          "type": "address"
        },
        {
          "indexed": false,
          "internalType": "bytes32",
          "name": "role",
          "type": "bytes32"
        }
      ],
      "name": "RevokeRole",
      "type": "event"
    },
    {
      "anonymous": false,
      "inputs": [
        {
          "indexed": true,
          "internalType": "address",
          "name": "from",
          "type": "address"
        },
        {
          "indexed": true,
          "internalType": "address",
          "name": "to",
          "type": "address"
        },
        {
          "indexed": false,
          "internalType": "uint256",
          "name": "value",
          "type": "uint256"
        }
      ],
      "name": "Transfer",
      "type": "event"
    },
    {
      "inputs": [],
      "name": "ADMIN_ROLE",
      "outputs": [
        {
          "internalType": "bytes32",
          "name": "",
          "type": "bytes32"
        }
      ],
      "stateMutability": "view",
      "type": "function"
    },
    {
      "inputs": [],
      "name": "BURNER_ROLE",
      "outputs": [
        {
          "internalType": "bytes32",
          "name": "",
          "type": "bytes32"
        }
      ],
      "stateMutability": "view",
      "type": "function"
    },
    {
      "inputs": [],
      "name": "MINTER_ROLE",
      "outputs": [
        {
          "internalType": "bytes32",
          "name": "",
          "type": "bytes32"
        }
      ],
      "stateMutability": "view",
      "type": "function"
    },
    {
      "inputs": [
        {
          "internalType": "address",
          "name": "owner",
          "type": "address"
        },
        {
          "internalType": "address",
          "name": "spender",
          "type": "address"
        }
      ],
      "name": "allowance",
      "outputs": [
        {
          "internalType": "uint256",
          "name": "",
          "type": "uint256"
        }
      ],
      "stateMutability": "view",
      "type": "function"
    },
    {
      "inputs": [
        {
          "internalType": "address",
          "name": "spender",
          "type": "address"
        },
        {
          "internalType": "uint256",
          "name": "amount",
          "type": "uint256"
        }
      ],
      "name": "approve",
      "outputs": [
        {
          "internalType": "bool",
          "name": "",
          "type": "bool"
        }
      ],
      "stateMutability": "nonpayable",
      "type": "function"
    },
    {
      "inputs": [
        {
          "internalType": "address",
          "name": "account",
          "type": "address"
        }
      ],
      "name": "balanceOf",
      "outputs": [
        {
          "internalType": "uint256",
          "name": "",
          "type": "uint256"
        }
      ],
      "stateMutability": "view",
      "type": "function"
    },
    {
      "inputs": [
        {
          "internalType": "address",
          "name": "_account",
          "type": "address"
        },
        {
          "internalType": "uint256",
          "name": "_amount",
          "type": "uint256"
        }
      ],
      "name": "burn",
      "outputs": [],
      "stateMutability": "nonpayable",
      "type": "function"
    },
    {
      "inputs": [],
      "name": "cap",
      "outputs": [
        {
          "internalType": "uint256",
          "name": "",
          "type": "uint256"
        }
      ],
      "stateMutability": "view",
      "type": "function"
    },
    {
      "inputs": [],
      "name": "decimals",
      "outputs": [
        {
          "internalType": "uint8",
          "name": "",
          "type": "uint8"
        }
      ],
      "stateMutability": "view",
      "type": "function"
    },
    {
      "inputs": [],
      "name": "getAdminRole",
      "outputs": [
        {
          "internalType": "bytes32",
          "name": "",
          "type": "bytes32"
        }
      ],
      "stateMutability": "pure",
      "type": "function"
    },
    {
      "inputs": [
        {
          "internalType": "address",
          "name": "_account",
          "type": "address"
        },
        {
          "internalType": "bytes32",
          "name": "_role",
          "type": "bytes32"
        }
      ],
      "name": "grantRole",
      "outputs": [],
      "stateMutability": "nonpayable",
      "type": "function"
    },
    {
      "inputs": [
        {
          "internalType": "address",
          "name": "_address",
          "type": "address"
        },
        {
          "internalType": "bytes32",
          "name": "_role",
          "type": "bytes32"
        }
      ],
      "name": "hasRole",
      "outputs": [
        {
          "internalType": "bool",
          "name": "",
          "type": "bool"
        }
      ],
      "stateMutability": "view",
      "type": "function"
    },
    {
      "inputs": [
        {
          "internalType": "address",
          "name": "_account",
          "type": "address"
        }
      ],
      "name": "isBurner",
      "outputs": [
        {
          "internalType": "bool",
          "name": "",
          "type": "bool"
        }
      ],
      "stateMutability": "view",
      "type": "function"
    },
    {
      "inputs": [
        {
          "internalType": "address",
          "name": "_account",
          "type": "address"
        }
      ],
      "name": "isMinter",
      "outputs": [
        {
          "internalType": "bool",
          "name": "",
          "type": "bool"
        }
      ],
      "stateMutability": "view",
      "type": "function"
    },
    {
      "inputs": [
        {
          "internalType": "address",
          "name": "_account",
          "type": "address"
        },
        {
          "internalType": "uint256",
          "name": "_amount",
          "type": "uint256"
        }
      ],
      "name": "mint",
      "outputs": [],
      "stateMutability": "nonpayable",
      "type": "function"
    },
    {
      "inputs": [],
      "name": "name",
      "outputs": [
        {
          "internalType": "string",
          "name": "",
          "type": "string"
        }
      ],
      "stateMutability": "view",
      "type": "function"
    },
    {
      "inputs": [
        {
          "internalType": "address",
          "name": "_account",
          "type": "address"
        },
        {
          "internalType": "bytes32",
          "name": "_role",
          "type": "bytes32"
        }
      ],
      "name": "renounceRole",
      "outputs": [],
      "stateMutability": "nonpayable",
      "type": "function"
    },
    {
      "inputs": [
        {
          "internalType": "address",
          "name": "_account",
          "type": "address"
        },
        {
          "internalType": "bytes32",
          "name": "_role",
          "type": "bytes32"
        }
      ],
      "name": "revokeRole",
      "outputs": [],
      "stateMutability": "nonpayable",
      "type": "function"
    },
    {
      "inputs": [],
      "name": "symbol",
      "outputs": [
        {
          "internalType": "string",
          "name": "",
          "type": "string"
        }
      ],
      "stateMutability": "view",
      "type": "function"
    },
    {
      "inputs": [],
      "name": "totalSupply",
      "outputs": [
        {
          "internalType": "uint256",
          "name": "",
          "type": "uint256"
        }
      ],
      "stateMutability": "view",
      "type": "function"
    },
    {
      "inputs": [
        {
          "internalType": "address",
          "name": "recipient",
          "type": "address"
        },
        {
          "internalType": "uint256",
          "name": "amount",
          "type": "uint256"
        }
      ],
      "name": "transfer",
      "outputs": [
        {
          "internalType": "bool",
          "name": "",
          "type": "bool"
        }
      ],
      "stateMutability": "nonpayable",
      "type": "function"
    },
    {
      "inputs": [
        {
          "internalType": "address",
          "name": "sender",
          "type": "address"
        },
        {
          "internalType": "address",
          "name": "recipient",
          "type": "address"
        },
        {
          "internalType": "uint256",
          "name": "amount",
          "type": "uint256"
        }
      ],
      "name": "transferFrom",
      "outputs": [
        {
          "internalType": "bool",
          "name": "",
          "type": "bool"
        }
      ],
      "stateMutability": "nonpayable",
      "type": "function"
    }
  ],
  "transactionHash": "0x4dca60f6129cf1db7e1e2b25ea0e27f8231137defab17a7df0834cc7333555fa",
  "args": [
    "Super Ruin Token",
    "RUIN",
    18,
    "10000000000000000000000000000000000"
  ],
  "solcInputHash": "568dfe1711533d0f239ef0588edb4cc0",
  "bytecode": "0x60a06040526002805460ff191660121790553480156200001e57600080fd5b50604051620017a8380380620017a88339810160408190526200004191620002de565b8084848482600090805190602001906200005d9291906200018d565b508151620000739060019060208501906200018d565b506002805460ff191660ff929092169190911790555050608052620000a36200009b620000ad565b6000620000b1565b5050505062000422565b3390565b620000bd8282620000c1565b5050565b620000cd828262000163565b15620000f65760405162461bcd60e51b8152600401620000ed906200037e565b60405180910390fd5b60008181526006602090815260408083206001600160a01b038616845290915290819020805460ff19166001179055517fa7303245a59ff2ac54e2fe5528bb42911d3e6b94b05e43bc614aae7bccf514f39062000157908490849062000365565b60405180910390a15050565b60009081526006602090815260408083206001600160a01b03949094168352929052205460ff1690565b8280546200019b90620003cf565b90600052602060002090601f016020900481019282620001bf57600085556200020a565b82601f10620001da57805160ff19168380011785556200020a565b828001600101855582156200020a579182015b828111156200020a578251825591602001919060010190620001ed565b50620002189291506200021c565b5090565b5b808211156200021857600081556001016200021d565b600082601f83011262000244578081fd5b81516001600160401b03808211156200026157620002616200040c565b6040516020601f8401601f19168201810183811183821017156200028957620002896200040c565b6040528382528584018101871015620002a0578485fd5b8492505b83831015620002c35785830181015182840182015291820191620002a4565b83831115620002d457848185840101525b5095945050505050565b60008060008060808587031215620002f4578384fd5b84516001600160401b03808211156200030b578586fd5b620003198883890162000233565b955060208701519150808211156200032f578485fd5b506200033e8782880162000233565b935050604085015160ff8116811462000355578283fd5b6060959095015193969295505050565b6001600160a01b03929092168252602082015260400190565b60208082526031908201527f416363657373436f6e74726f6c3a3a5573657220616c7265616479206772616e60408201527074656420666f72207468697320726f6c6560781b606082015260800190565b600281046001821680620003e457607f821691505b602082108114156200040657634e487b7160e01b600052602260045260246000fd5b50919050565b634e487b7160e01b600052604160045260246000fd5b60805161136a6200043e60003960006104dd015261136a6000f3fe608060405234801561001057600080fd5b50600436106101825760003560e01c806375b238fc116100d8578063ab2742dc1161008c578063d539139311610066578063d5391393146102d7578063dd62ed3e146102df578063f3c3437d146102f257610182565b8063ab2742dc146102a9578063ac4ab3fb146102bc578063b3ecf236146102cf57610182565b80639dc29fac116100bd5780639dc29fac14610270578063a9059cbb14610283578063aa271e1a1461029657610182565b806375b238fc1461026057806395d89b411461026857610182565b8063282c51f31161013a57806340c10f191161011457806340c10f19146102275780634334614a1461023a57806370a082311461024d57610182565b8063282c51f314610202578063313ce5671461020a578063355274ea1461021f57610182565b806318160ddd1161016b57806318160ddd146101c5578063208dd1ff146101da57806323b872dd146101ef57610182565b806306fdde0314610187578063095ea7b3146101a5575b600080fd5b61018f610305565b60405161019c9190610d97565b60405180910390f35b6101b86101b3366004610cef565b610397565b60405161019c9190610d83565b6101cd6103b4565b60405161019c9190610d8e565b6101ed6101e8366004610cef565b6103ba565b005b6101b86101fd366004610cb4565b610413565b6101cd6104aa565b6102126104d2565b60405161019c91906112a6565b6101cd6104db565b6101ed610235366004610cef565b6104ff565b6101b8610248366004610c61565b610564565b6101cd61025b366004610c61565b61059c565b6101cd6105b7565b61018f6105bc565b6101ed61027e366004610cef565b6105cb565b6101b8610291366004610cef565b610630565b6101b86102a4366004610c61565b610644565b6101ed6102b7366004610cef565b610659565b6101b86102ca366004610cef565b6106a4565b6101cd6106ce565b6101cd6106d3565b6101cd6102ed366004610c82565b6106e2565b6101ed610300366004610cef565b61070d565b606060008054610314906112e3565b80601f0160208091040260200160405190810160405280929190818152602001828054610340906112e3565b801561038d5780601f106103625761010080835404028352916020019161038d565b820191906000526020600020905b81548152906001019060200180831161037057829003601f168201915b5050505050905090565b60006103ab6103a4610780565b8484610784565b50600192915050565b60035490565b6103c26106ce565b600081815260066020908152604080832033845290915290205460ff166104045760405162461bcd60e51b81526004016103fb90610f1e565b60405180910390fd5b61040e8383610838565b505050565b6001600160a01b0383166000908152600460205260408120819081610436610780565b6001600160a01b03166001600160a01b03168152602001908152602001600020549050828110156104795760405162461bcd60e51b81526004016103fb906110d5565b6104848585856108c6565b61049f85610490610780565b61049a86856112cc565b610784565b506001949350505050565b6040516020016104b990610d18565b6040516020818303038152906040528051906020012081565b60025460ff1690565b7f000000000000000000000000000000000000000000000000000000000000000090565b60405160200161050e90610d41565b60408051601f19818403018152918152815160209283012060008181526006845282812033825290935291205460ff1661055a5760405162461bcd60e51b81526004016103fb90610f1e565b61040e83836109e9565b60006105948260405160200161057990610d18565b604051602081830303815290604052805190602001206106a4565b90505b919050565b6001600160a01b031660009081526005602052604090205490565b600081565b606060018054610314906112e3565b6040516020016105da90610d18565b60408051601f19818403018152918152815160209283012060008181526006845282812033825290935291205460ff166106265760405162461bcd60e51b81526004016103fb90610f1e565b61040e8383610a30565b60006103ab61063d610780565b84846108c6565b60006105948260405160200161057990610d41565b6106616106ce565b600081815260066020908152604080832033845290915290205460ff1661069a5760405162461bcd60e51b81526004016103fb90610f1e565b61040e8383610b1c565b60009081526006602090815260408083206001600160a01b03949094168352929052205460ff1690565b600090565b6040516020016104b990610d41565b6001600160a01b03918216600090815260046020908152604080832093909416825291909152205490565b6107156106ce565b600081815260066020908152604080832033845290915290205460ff1661074e5760405162461bcd60e51b81526004016103fb90610f1e565b6001600160a01b03831633146107765760405162461bcd60e51b81526004016103fb90610e7e565b61040e3383610838565b3390565b6001600160a01b0383166107aa5760405162461bcd60e51b81526004016103fb90610edb565b6001600160a01b0382166107d05760405162461bcd60e51b81526004016103fb90610dea565b6001600160a01b0380841660008181526004602090815260408083209487168084529490915290819020849055517f8c5be1e5ebec7d5bd14f71427d1e84f3dd0314c0f7b2291e5b200ac8c7c3b9259061082b908590610d8e565b60405180910390a3505050565b61084282826106a4565b61085e5760405162461bcd60e51b81526004016103fb90611035565b60008181526006602090815260408083206001600160a01b038616845290915290819020805460ff19169055517fd2a4c0c5ce589dd4d53ba3b322ec9e98736a0476cec2f1a1515835650bca3b9d906108ba9084908490610d6a565b60405180910390a15050565b6001600160a01b0382166108ec5760405162461bcd60e51b81526004016103fb90610f7b565b6001600160a01b0383166109125760405162461bcd60e51b81526004016103fb90611132565b6001600160a01b03831660009081526005602052604090205481111561094a5760405162461bcd60e51b81526004016103fb906111ec565b6001600160a01b038316600090815260056020526040812080548392906109729084906112cc565b90915550506001600160a01b0382166000908152600560205260408120805483929061099f9084906112b4565b92505081905550816001600160a01b0316836001600160a01b03167fddf252ad1be2c89b69c2b068fc378daa952ba7f163c4a11628f55a4df523b3ef8360405161082b9190610d8e565b6109f16104db565b816109fa6103b4565b610a0491906112b4565b1115610a225760405162461bcd60e51b81526004016103fb90611249565b610a2c8282610ba2565b5050565b6001600160a01b038216610a565760405162461bcd60e51b81526004016103fb90610e47565b6001600160a01b038216600090815260056020526040902054811115610a8e5760405162461bcd60e51b81526004016103fb9061118f565b8060036000828254610aa091906112cc565b90915550506001600160a01b03821660009081526005602052604081208054839290610acd9084906112cc565b90915550506040516000906001600160a01b038416907fddf252ad1be2c89b69c2b068fc378daa952ba7f163c4a11628f55a4df523b3ef90610b10908590610d8e565b60405180910390a35050565b610b2682826106a4565b15610b435760405162461bcd60e51b81526004016103fb90610fd8565b60008181526006602090815260408083206001600160a01b038616845290915290819020805460ff19166001179055517fa7303245a59ff2ac54e2fe5528bb42911d3e6b94b05e43bc614aae7bccf514f3906108ba9084908490610d6a565b6001600160a01b038216610bc85760405162461bcd60e51b81526004016103fb90611092565b8060036000828254610bda91906112b4565b90915550506001600160a01b03821660009081526005602052604081208054839290610c079084906112b4565b90915550506040516001600160a01b038316906000907fddf252ad1be2c89b69c2b068fc378daa952ba7f163c4a11628f55a4df523b3ef90610b10908590610d8e565b80356001600160a01b038116811461059757600080fd5b600060208284031215610c72578081fd5b610c7b82610c4a565b9392505050565b60008060408385031215610c94578081fd5b610c9d83610c4a565b9150610cab60208401610c4a565b90509250929050565b600080600060608486031215610cc8578081fd5b610cd184610c4a565b9250610cdf60208501610c4a565b9150604084013590509250925092565b60008060408385031215610d01578182fd5b610d0a83610c4a565b946020939093013593505050565b7f4255524e45525f524f4c450000000000000000000000000000000000000000008152600b0190565b7f4d494e5445525f524f4c450000000000000000000000000000000000000000008152600b0190565b6001600160a01b03929092168252602082015260400190565b901515815260200190565b90815260200190565b6000602080835283518082850152825b81811015610dc357858101830151858201604001528201610da7565b81811115610dd45783604083870101525b50601f01601f1916929092016040019392505050565b60208082526022908201527f5275696e3a3a41646472657373206f66207370656e64657220697320696c656760408201527f616c000000000000000000000000000000000000000000000000000000000000606082015260800190565b60208082526017908201527f5275696e3a3a4164647265737320697320696c6567616c000000000000000000604082015260600190565b60208082526033908201527f416363657373436f6e74726f6c3a3a596f752063616e206f6e6c792072656e6f60408201527f756e636520726f6c657320666f722073656c6600000000000000000000000000606082015260800190565b60208082526023908201527f5275696e3a3a41646472657373206f6620617070726f76657220697320696c6560408201526219d85b60ea1b606082015260800190565b6020808252602f908201527f416363657373436f6e74726f6c3a3a596f757220726f6c65206973206e6f742060408201527f61626c6520746f20646f20746869730000000000000000000000000000000000606082015260800190565b60208082526024908201527f5275696e3a3a41646472657373206f6620726563697069656e7420697320696c60408201527f6567616c00000000000000000000000000000000000000000000000000000000606082015260800190565b60208082526031908201527f416363657373436f6e74726f6c3a3a5573657220616c7265616479206772616e60408201527f74656420666f72207468697320726f6c65000000000000000000000000000000606082015260800190565b60208082526031908201527f416363657373436f6e74726f6c3a3a55736572206e6f74206772616e7465642060408201527f666f72207468697320726f6c6520796574000000000000000000000000000000606082015260800190565b60208082526023908201527f5275696e3a3a41646472657373206f6620726563656976657220697320696c6560408201526219d85b60ea1b606082015260800190565b60208082526027908201527f5275696e3a3a5472616e7366657220616d6f756e74206578636565647320616c60408201527f6c6f77616e636500000000000000000000000000000000000000000000000000606082015260800190565b60208082526021908201527f5275696e3a3a41646472657373206f662073656e64657220697320696c65676160408201527f6c00000000000000000000000000000000000000000000000000000000000000606082015260800190565b6020808252602c908201527f5275696e3a3a4275726e696e6720616d6f756e7420657863656564732061636360408201527f6f756e742062616c616e63650000000000000000000000000000000000000000606082015260800190565b6020808252602d908201527f5275696e3a3a5472616e7366657220616d6f756e74206578636565647320616360408201527f636f756e742062616c616e636500000000000000000000000000000000000000606082015260800190565b60208082526026908201527f45524332304361707065643a3a596f75206d696e74206578636565647320796f60408201527f7572206361700000000000000000000000000000000000000000000000000000606082015260800190565b60ff91909116815260200190565b600082198211156112c7576112c761131e565b500190565b6000828210156112de576112de61131e565b500390565b6002810460018216806112f757607f821691505b6020821081141561131857634e487b7160e01b600052602260045260246000fd5b50919050565b634e487b7160e01b600052601160045260246000fdfea2646970667358221220a391b80df165a92f980849501f9e5c73913ffee5a130fa3b66304bb5b71d80da64736f6c63430008000033",
  "devdoc": {
    "kind": "dev",
    "methods": {
      "allowance(address,address)": {
        "details": "Returns the remaining number of tokens that `spender` will be allowed to spend on behalf of `owner` through {transferFrom}. This is zero by default. This value changes when {approve} or {transferFrom} are called."
      },
      "approve(address,uint256)": {
        "details": "Sets `amount` as the allowance of `spender` over the caller's tokens. Returns a boolean value indicating whether the operation succeeded. IMPORTANT: Beware that changing an allowance with this method brings the risk that someone may use both the old and the new allowance by unfortunate transaction ordering. One possible solution to mitigate this race condition is to first reduce the spender's allowance to 0 and set the desired value afterwards: https://github.com/ethereum/EIPs/issues/20#issuecomment-263524729 Emits an {Approval} event."
      },
      "balanceOf(address)": {
        "details": "Returns the amount of tokens owned by `account`."
      },
      "totalSupply()": {
        "details": "Returns the amount of tokens in existence."
      },
      "transfer(address,uint256)": {
        "details": "Moves `amount` tokens from the caller's account to `recipient`. Returns a boolean value indicating whether the operation succeeded. Emits a {Transfer} event."
      },
      "transferFrom(address,address,uint256)": {
        "details": "Moves `amount` tokens from `sender` to `recipient` using the allowance mechanism. `amount` is then deducted from the caller's allowance. Returns a boolean value indicating whether the operation succeeded. Emits a {Transfer} event."
      }
    },
    "version": 1
  },
  "userdoc": {
    "kind": "user",
    "methods": {},
    "version": 1
  },
  "storageLayout": {
    "storage": [
      {
        "astId": 371,
        "contract": "contracts/tokens/Ruin.sol:Ruin",
        "label": "_name",
        "offset": 0,
        "slot": "0",
        "type": "t_string_storage"
      },
      {
        "astId": 373,
        "contract": "contracts/tokens/Ruin.sol:Ruin",
        "label": "_symbol",
        "offset": 0,
        "slot": "1",
        "type": "t_string_storage"
      },
      {
        "astId": 376,
        "contract": "contracts/tokens/Ruin.sol:Ruin",
        "label": "_decimals",
        "offset": 0,
        "slot": "2",
        "type": "t_uint8"
      },
      {
        "astId": 378,
        "contract": "contracts/tokens/Ruin.sol:Ruin",
        "label": "_totalSupply",
        "offset": 0,
        "slot": "3",
        "type": "t_uint256"
      },
      {
        "astId": 384,
        "contract": "contracts/tokens/Ruin.sol:Ruin",
        "label": "_allowances",
        "offset": 0,
        "slot": "4",
        "type": "t_mapping(t_address,t_mapping(t_address,t_uint256))"
      },
      {
        "astId": 388,
        "contract": "contracts/tokens/Ruin.sol:Ruin",
        "label": "_balances",
        "offset": 0,
        "slot": "5",
        "type": "t_mapping(t_address,t_uint256)"
      },
      {
        "astId": 10,
        "contract": "contracts/tokens/Ruin.sol:Ruin",
        "label": "roles",
        "offset": 0,
        "slot": "6",
        "type": "t_mapping(t_bytes32,t_mapping(t_address,t_bool))"
      }
    ],
    "types": {
      "t_address": {
        "encoding": "inplace",
        "label": "address",
        "numberOfBytes": "20"
      },
      "t_bool": {
        "encoding": "inplace",
        "label": "bool",
        "numberOfBytes": "1"
      },
      "t_bytes32": {
        "encoding": "inplace",
        "label": "bytes32",
        "numberOfBytes": "32"
      },
      "t_mapping(t_address,t_bool)": {
        "encoding": "mapping",
        "key": "t_address",
        "label": "mapping(address => bool)",
        "numberOfBytes": "32",
        "value": "t_bool"
      },
      "t_mapping(t_address,t_mapping(t_address,t_uint256))": {
        "encoding": "mapping",
        "key": "t_address",
        "label": "mapping(address => mapping(address => uint256))",
        "numberOfBytes": "32",
        "value": "t_mapping(t_address,t_uint256)"
      },
      "t_mapping(t_address,t_uint256)": {
        "encoding": "mapping",
        "key": "t_address",
        "label": "mapping(address => uint256)",
        "numberOfBytes": "32",
        "value": "t_uint256"
      },
      "t_mapping(t_bytes32,t_mapping(t_address,t_bool))": {
        "encoding": "mapping",
        "key": "t_bytes32",
        "label": "mapping(bytes32 => mapping(address => bool))",
        "numberOfBytes": "32",
        "value": "t_mapping(t_address,t_bool)"
      },
      "t_string_storage": {
        "encoding": "bytes",
        "label": "string",
        "numberOfBytes": "32"
      },
      "t_uint256": {
        "encoding": "inplace",
        "label": "uint256",
        "numberOfBytes": "32"
      },
      "t_uint8": {
        "encoding": "inplace",
        "label": "uint8",
        "numberOfBytes": "1"
      }
    }
  }
}